:03034B0000FF00B0
:1001240078087C007D007BFF7A03794B7E007F0199
:100134001200D378097C007D007BFF7A03794C7E22
:10014400007F011200D3780A7C007D007BFF7A03D4
:10015400794D7E007F011200D37B007A0079087507
:1001640010017D067F401202127B007A0079087527
:1001740010017D077F401202127A007909120209E8
:100184007B007A0079097510017D037F4012021209
:100194007F647E001202CD7A00790A1202097B0084
:1001A4007A00790A7510017D037F401202127F6480
:0701B4007E001202CD80C2A3
:10030200D2B700D2B60000000000C2B70000000061
:0603120000C2B60000224B
:10032E00C2B700D2B60000000000D2B70000000035
:01033E00229C
:030249001203029B
:10024C00E4FEEFA806088002C333D8FC30E704D2E2
:10025C00B78002C2B700D2B60000000000C2B60ED2
:10026C00BE08DF0000D2B70000D2B600000030B7E5
:0B027C0004C2018002D201C2B60000E3
:010287002254
:10028800E4FFD2B7FE00C2B60000000000D2B600FC
:1002980000EF25E0FF30B7010F00000EBE08E6C2F0
:0302A800B600009D
:0102AB002230
:0902AC00120288EF120112D200C7
:1002B500200004C2B78002D2B7000000D2B6000009
:0802C500000000C2B600002297
:1002EB00120249200102C322AF0512024C20010267
:0702FB00C32212032ED322DF
:090209007B007510017D027F40AD
:02021200AE0735
:10021400120249200102C322AF0512024C2001023E
:10022400C322E4FDEDC3951050161200F9FF12022B
:100234004C200102C322740129F9E43AFA0D80E446
:0402440012032ED3A0
:010248002293
:10031800120302EF04FF12024C200102C322120250
:06032800AC12032ED322EB
:0201BB00AC078F
:1001BD0012030212024C200102C322AF0512024C9F
:1001CD00200102C322120302EC04FF12024C200193
:1001DD0002C322E4FDE51614FFEDC39F5016120273
:1001ED0088EF120112C2001202B5740129F9E43A26
:0B01FD00FA0D80E11202AC12032ED3B9
:0102080022D3
:1002CD00D3EF9400EE940040147DC87C00ED1D70BA
:0D02DD00011CED4C70F7EF1F70E61E80E372
:0102EA0022F1
:0300000002033FB9
:0C033F00787FE4F6D8FD758120020124CF
:10000300E709F608DFFA8046E709F208DFFA803EDF
:1000130088828C83E709F0A3DFFA8032E309F608CC
:10002300DFFA8078E309F208DFFA807088828C8334
:10003300E309F0A3DFFA806489828A83E0A3F608E8
:10004300DFFA805889828A83E0A3F208DFFA804CC2
:1000530080D280FA80C680D4806980F28033801099
:1000630080A680EA809A80A880DA80E280CA803302
:1000730089828A83ECFAE493A3C8C582C8CCC5837A
:10008300CCF0A3C8C582C8CCC583CCDFE9DEE7804A
:100093000D89828A83E493A3F608DFF9ECFAA9F0C9
:1000A300EDFB2289828A83ECFAE0A3C8C582C8CC1F
:1000B300C583CCF0A3C8C582C8CCC583CCDFEADE38
:1000C300E880DB89828A83E493A3F208DFF980CC9A
:1000D30088F0EF60010E4E60C388F0ED2402B40493
:1000E3000050B9F582EB2402B4040050AF2323453A
:0600F3008223900053730C
:1000F900BB010689828A83E0225002E722BBFE0205
:09010900E32289828A83E4932237
:10011200BB010689828A83F0225002F722BBFE01CC
:02012200F322C6
:00000001FF
