:040426008012FF0041
:1000030078087C007D007BFF7A0479267E007F01DF
:1000130012024578097C007D007BFF7A0479277EF4
:10002300007F01120245780A7C007D007BFF7A0481
:1000330079287E007F01120245780B7C007D007BCE
:10004300FF7A0479297E007F011202457F0A7E0030
:100053001203A87B007A0079097511017D2A7F407C
:100063001202ED7B007A0079087511017D297F402A
:100073001202ED7B007A00790A7511017D287F4019
:100083001202ED7B007A00790B7511017D187F4018
:100093001202ED7B007A00790B7511017D197F4007
:1000A3001202ED7B007A00790B7511017D1A7F40F6
:1000B3001202ED7B007A00790B7511017D1B7F40E5
:1000C3001202ED7B007A00790B7511017D1C7F40D4
:1000D3001202ED7F647E001203A87A00790B1202EC
:1000E300E47B007A00790B7511017D097F401202D0
:1000F300ED7B007A00790B7511017D0A7F401202B6
:10010300ED7B007A00790B7511017D0B7F401202A4
:10011300ED7B007A00790B7511017D0C7F40120293
:10012300ED7F647E001203A87A00790A1202E47B51
:10013300007A00790A7511017D097F401202ED7B77
:10014300007A00790A7511017D0A7F401202ED7B66
:10015300007A00790A7511017D0B7F401202ED7B55
:10016300007A00790A7511017D0C7F401202ED02BD
:0201730000D6B4
:1003DD00D2B700D2B60000000000C2B70000000086
:0603ED0000C2B600002270
:10040900C2B700D2B60000000000D2B70000000059
:0104190022C0
:030324001203DDE4
:10032700E4FEEFA806088002C333D8FC30E704D206
:10033700B78002C2B700D2B60000000000C2B60EF6
:10034700BE08DF0000D2B70000D2B600000030B709
:0B03570004C2018002D201C2B6000007
:010362002278
:10036300E4FFD2B7FE00C2B60000000000D2B60020
:1003730000EF25E0FF30B7010F00000EBE08E6C214
:03038300B60000C1
:010386002254
:09038700120363EF120284D2009C
:10039000200004C2B78002D2B7000000D2B600002D
:0803A000000000C2B6000022BB
:1003C600120324200102C322AF05120327200102D3
:0703D600C322120409D32227
:0902E4007B007511017D087F40CB
:0202ED00AE075A
:1002EF00120324200102C322AF05120327200102AB
:1002FF00C322E4FDEDC39511501612026BFF1203DA
:10030F0027200102C322740129F9E43AFA0D80E48F
:04031F00120409D3E8
:0103230022B7
:1003F3001203DDEF04FF120327200102C3221203BD
:0604030087120409D32258
:02029600AC07B3
:100298001203DD120327200102C322AF0512032730
:1002A800200102C3221203DDEC04FF120327200100
:1002B80002C322E4FDE51714FFEDC39F5016120395
:1002C80063EF120284C200120390740129F9E43A20
:0B02D800FA0D80E1120387120409D325
:0102E30022F8
:1003A800D3EF9400EE940040147DC87C00ED1D70DE
:0D03B800011CED4C70F7EF1F70E61E80E396
:0103C5002215
:0300000002041ADD
:0C041A00787FE4F6D8FD75812002000315
:10017500E709F608DFFA8046E709F208DFFA803E6C
:1001850088828C83E709F0A3DFFA8032E309F60859
:10019500DFFA8078E309F208DFFA807088828C83C1
:1001A500E309F0A3DFFA806489828A83E0A3F60875
:1001B500DFFA805889828A83E0A3F208DFFA804C4F
:1001C50080D280FA80C680D4806980F28033801026
:1001D50080A680EA809A80A880DA80E280CA80338F
:1001E50089828A83ECFAE493A3C8C582C8CCC58307
:1001F500CCF0A3C8C582C8CCC583CCDFE9DEE780D7
:100205000D89828A83E493A3F608DFF9ECFAA9F055
:10021500EDFB2289828A83ECFAE0A3C8C582C8CCAB
:10022500C583CCF0A3C8C582C8CCC583CCDFEADEC4
:10023500E880DB89828A83E493A3F208DFF980CC26
:1002450088F0EF60010E4E60C388F0ED2402B4041F
:100255000050B9F582EB2402B4040050AF232345C6
:0602650082239001C57325
:10026B00BB010689828A83E0225002E722BBFE0291
:09027B00E32289828A83E49322C4
:10028400BB010689828A83F0225002F722BBFE0159
:02029400F32253
:00000001FF
